:100000000C9462000C948A000C948A000C948A0070
:100010000C948A000C948A000C948A000C948A0038
:100020000C948A000C948A000C948A000C948A0028
:100030000C948A000C948A000C948A000C948A0018
:100040000C941A050C948A000C94A1020C94DD0205
:100050000C948A000C948A000C948A000C948A00F8
:100060000C948A000C948A00000000070002010032
:100070000003040600000000000000000102040864
:100080001020408001020408102001020408102002
:10009000040404040404040402020202020203032E
:1000A00003030303000000002300260029000000D2
:1000B0000000250028002B0000000000240027007D
:1000C0002A00980311241FBECFEFD8E0DEBFCDBFBA
:1000D00011E0A0E0B1E0E2E9FBE002C005900D9282
:1000E000A833B107D9F711E0A8E3B1E001C01D9230
:1000F000A83EB107E1F710E0C4ECD0E004C02297BD
:10010000FE010E94C305C23CD107C9F70E94F80155
:100110000C94C7050C94000040E855E260E070E0E4
:1001200088E391E00C941803611101C005C06230AE
:1001300009F402C0613011F40C943F01089561117B
:1001400001C002C0613011F40C94770108950E943F
:10015000AE014AE050E0BC0188E391E00C94F80461
:100160000E94D7014AE050E0BC0188E391E00C9482
:100170000005FC018081823119F48181813219F0FE
:1001800061E071E01CC08281813069F01CF4882339
:1001900031F013C0823059F0833079F40BC06481A0
:1001A00083810C949400648183810C949F008381EB
:1001B0000C94A70083810C94B00064E171E088E3A3
:1001C00091E00C943D04EF92FF920F931F93CF9315
:1001D000DF9300D000D01F92CDB7DEB788E391E067
:1001E0000E9405020597ACF08E010F5F1F4F7E0144
:1001F00086E0E80EF11C88E391E00E943402F801E9
:1002000081938F01EE15FF05B1F7CE0101960E9493
:10021000B9000F900F900F900F900F90DF91CF913A
:100220001F910F91FF90EF900895833069F028F4AB
:100230008130A1F0823011F514C08630B1F08730E2
:10024000C1F08430D9F404C0809180008F7703C05E
:10025000809180008F7D80938000089584B58F7792
:1002600002C084B58F7D84BD08958091B0008F77E2
:1002700003C08091B0008F7D8093B0000895CF932C
:10028000DF9390E0FC01E458FF4F4491FC01E057FC
:10029000FF4F8491882341F190E0880F991FFC0162
:1002A000E854FF4F25913491D90182559F4FFC01AD
:1002B00085919491C82FD92F9FB7F8948C91611193
:1002C00006C0409584238C938881842308C06230C3
:1002D00041F4242F209582238C938881842B88835A
:1002E00002C0842B8C939FBFDF91CF9108950F9311
:1002F0001F93CF93DF931F92CDB7DEB7282F30E047
:10030000F901E859FF4F8491F901E458FF4F149126
:10031000F901E057FF4F04910023D1F0882321F029
:1003200069830E9415016981E02FF0E0EE0FFF1F45
:10033000E255FF4F85919491DC019FB7F8948C9121
:10034000611103C01095812301C0812B8C939FBF45
:100350000F90DF91CF911F910F910895CF93DF936D
:10036000282F30E0F901E859FF4F8491F901E45852
:10037000FF4FD491F901E057FF4FC491CC2389F08E
:1003800081110E941501EC2FF0E0EE0FFF1FEC55DC
:10039000FF4F85919491DC018C918D2321E030E019
:1003A00011F420E030E0C901DF91CF9108958E3043
:1003B00008F08E5087702091000140E4249F900146
:1003C0001124822B80937C0080917A00806480933A
:1003D0007A0080917A0086FDFCCF209178003091E0
:1003E0007900932F80E0AC01422B9A01C901089556
:1003F0000E9464050E948C00C4EDD2E00E94E300DC
:100400002097E1F30E94D402F9CFFC018485958501
:10041000FC01E05CFF4F20813181FC01EE5BFF4F6E
:1004200080819181281B390B2F733327C9010895CF
:10043000FC0184859585FC01E05CFF4F4081518182
:10044000FC01EE5BFF4F208131814217530741F0E1
:100450000190F081E02DE80FF91F208130E002C00B
:100460002FEF3FEFC9010895FC0184859585FC01BC
:10047000E05CFF4F40815181FC01EE5BFF4F20812A
:1004800031814217530781F0A081B181A80FB91FB4
:100490008C91208131812F5F3F4F2F733327318320
:1004A0002083282F30E002C02FEF3FEFC9010895CD
:1004B000FC0186859785FC01E05CFF4FDC01AE5BAB
:1004C000BF4F408151812D913C91119742175307A5
:1004D000C1F70895CF93DF93FC0186859785DC01F2
:1004E000A05CBF4F2D913C9111972F5F3F4F2F7311
:1004F0003327EC01CE5BDF4F488159812417350744
:10050000D9F30D90BC91A02DA80FB91F6C93A685AF
:10051000B785A05CBF4F11963C932E93A689B789EF
:100520002C9181E090E0058C02C0880F991F0A94FD
:10053000E2F7282B2C9381E090E0DF91CF91089592
:1005400008951F920F920FB60F9211242F933F938D
:100550004F938F939F93EF93FF934091C6008091A9
:10056000DB019091DC0101968F7399272091DD01C9
:100570003091DE018217930759F0E091DB01F09191
:10058000DC01E556FE4F40839093DC018093DB0154
:10059000FF91EF919F918F914F913F912F910F90EC
:1005A0000FBE0F901F90189588E391E00E940502FE
:1005B000892B11F00C94A00208951F920F920FB690
:1005C0000F9211242F933F938F939F93EF93FF9359
:1005D00020919701309198018091990190919A0111
:1005E0002817390731F48091C1008F7D8093C100B5
:1005F00014C0E0919901F0919A01E95AFE4F2081CF
:100600008091990190919A0101968F739927909307
:100610009A01809399012093C600FF91EF919F91D9
:100620008F913F912F910F900FBE0F901F901895B3
:10063000CF92DF92EF92FF92CF93DF93EC016A01AA
:100640007B01411581EE580761057105F9F0EC89D0
:10065000FD8981E090E00E8C02C0880F991F0A94FA
:10066000E2F7808360E079E08DE390E0A7019601F6
:100670000E949F052150310941095109569547951E
:1006800037952795211580E1380798F0EC89FD8989
:10069000108260E874E88EE190E0A70196010E9464
:1006A0009F052150310941095109569547953795C4
:1006B0002795E889F9893083EA89FB892083EE89C7
:1006C000FF89408181E090E09C010A8C02C0220FEA
:1006D000331F0A94E2F7422B4083EE89FF89408161
:1006E0009C010B8C02C0220F331F0A94E2F7422BAD
:1006F0004083EE89FF8940819C010C8C02C0220F4F
:10070000331F0A94E2F7422B4083EE89FF89208150
:100710000D8C02C0880F991F0A94E2F780958223FE
:100720008083DF91CF91FF90EF90DF90CF9008957D
:1007300010923B0110923A0188EE93E0A0E0B0E005
:1007400080933C0190933D01A0933E01B0933F0103
:100750008BE291E090933901809338018BE991E02D
:10076000909345018093440187E591E09093470180
:100770008093460185EC90E0909349018093480175
:1007800084EC90E090934B0180934A0180EC90E0E0
:1007900090934D0180934C0181EC90E090934F0138
:1007A00080934E0186EC90E090935101809350012C
:1007B00084E08093520183E08093530187E080932B
:1007C000540185E08093550181E08093560108959E
:1007D000CF92DF92EF92FF920F931F93CF93DF930D
:1007E0006C01EB017A01E60EF71E00E010E00BC091
:1007F0006991D601ED91FC910190F081E02DC60147
:100800000995080F191FCE15DF0591F7C801DF9173
:10081000CF911F910F91FF90EF90DF90CF900895AF
:10082000DB010D900020E9F7AD0141505109461B55
:10083000570BDC01ED91FC910280F381E02D0994CE
:10084000DC01ED91FC910190F081E02D09940F9372
:100850001F93CF93DF93EC016DE00E9420048C0185
:100860006AE0CE010E9420049C01200F311FC901C3
:10087000DF91CF911F910F9108950F931F93CF9305
:10088000DF93EC010E9410048C01CE010E9427042A
:100890009801280F391FC901DF91CF911F910F9146
:1008A00008954F925F926F927F929F92AF92BF9204
:1008B000CF92DF92EF92FF920F931F93CF93DF932C
:1008C000CDB7DEB7A1970FB6F894DEBF0FBECDBF90
:1008D0005C016A017B01922E19A281E0821710F05F
:1008E0008AE0982E8E010F5D1F4F492C512C612CF0
:1008F000712CC701B601A30192010E949F058C2DA6
:10090000929E80191124015011098A3014F4805DDF
:1009100001C0895CF801808369017A01C114D104A6
:10092000E104F10431F7B801C5010E941004A19659
:100930000FB6F894DEBF0FBECDBFDF91CF911F91F0
:100940000F91FF90EF90DF90CF90BF90AF909F906E
:100950007F906F905F904F900895CF92DF92EF92CB
:10096000FF920F931F93CF93DF93EC016A017B01FA
:100970002115310579F4E881F9810190F081E02DAC
:10098000642FDF91CF911F910F91FF90EF90DF9037
:10099000CF9009942A30310519F477FD0EC02AE072
:1009A000B701A601CE01DF91CF911F910F91FF906A
:1009B000EF90DF90CF900C9451046DE20E942004E0
:1009C0008C0144275527BA014C195D096E097F092E
:1009D0002AE0CE010E945104080F191FC801DF91BF
:1009E000CF911F910F91FF90EF90DF90CF900895DE
:1009F0009A01AB01662757FD6095762F0C94AD04E4
:100A00000F931F93CF93DF93EC019A01AB016627FD
:100A100057FD6095762F0E94AD048C01CE010E9497
:100A200027049801280F391FC901DF91CF911F9129
:100A30000F9108951F920F920FB60F9211242F93CA
:100A40003F938F939F93AF93BF938091DF019091DA
:100A5000E001A091E101B091E2013091E701232F83
:100A60002D5F2D3720F40196A11DB11D05C0232F48
:100A70002A570296A11DB11D2093E7018093DF0143
:100A80009093E001A093E101B093E2018091E30132
:100A90009091E401A091E501B091E6010196A11DBC
:100AA000B11D8093E3019093E401A093E501B0931D
:100AB000E601BF91AF919F918F913F912F910F9040
:100AC0000FBE0F901F901895789484B5826084BDF6
:100AD00084B5816084BD85B5826085BD85B5816042
:100AE00085BDEEE6F0E0808181608083E1E8F0E0A2
:100AF0001082808182608083808181608083E0E8D1
:100B0000F0E0808181608083E1EBF0E080818460AF
:100B10008083E0EBF0E0808181608083EAE7F0E0B1
:100B20008081846080838081826080838081816015
:100B300080838081806880831092C1000895A1E243
:100B40001A2EAA1BBB1BFD010DC0AA1FBB1FEE1F47
:100B5000FF1FA217B307E407F50720F0A21BB30B92
:100B6000E40BF50B661F771F881F991F1A9469F70E
:100B700060957095809590959B01AC01BD01CF016A
:100B80000895EE0FFF1F0590F491E02D0994F8945D
:020B9000FFCF95
:100B92000157726F6E67206D61676963206E756DB4
:100BA20062657200556E6B6E776F6E20636F6D6D4E
:100BB200616E64203A2800000000006A02E8030522
:080BC20002340218025802007F
:00000001FF
